:0400000007EF00F016
:100008001982F3ED01F0E7EF01F0000E0A6E08BE69
:1000180012EF00F010EF00F01CEF00F0081E071EB2
:10002800061E056C000E062207220822010E0A6E23
:1000380004BE23EF00F021EF00F02DEF00F0041EC6
:10004800031E021E016C000E022203220422010E6E
:100058000A1A000E0B6E000E0C6E000E0D6E000ECE
:100068000E6E0550061007100810D8B43EEF00F0C9
:1000780040EF00F076EF00F0010E096E4AEF00F055
:10008800D8900536063607360836092A08AE4FEFE7
:1000980000F051EF00F044EF00F0D8900B360C362A
:1000A8000D360E360550015C0650025807500358AD
:1000B80008500458D8A063EF00F065EF00F06EEF29
:1000C80000F00550015E0650025A0750035A0850C6
:1000D800045A0B80D8900832073206320532092EAE
:1000E80051EF00F00A50D8B47CEF00F07EEF00F03A
:1000F80086EF00F00E1E0D1E0C1E0B6C000E0C225F
:100108000D220E220BC001F00CC002F00DC003F04E
:100118000EC004F01200949082909386000E0F6E29
:10012800C20E106E010E116E000E126E1FEC01F061
:10013800A00E0F6E860E106E010E116E000E126E5E
:1001480059EC01F0E0EC00F081A6ADEF00F0AFEF64
:1001580000F0CFEF00F0070E79EC01F04D0E79ECCE
:1001680001F0B10E79EC01F0250E90EC01F0290EAA
:1001780090EC01F079EC01F02B0E90EC01F079ECA9
:1001880001F02D0E90EC01F079EC01F0260E90ECC8
:1001980001F079EC01F01750D8B4D5EF00F0D7EFA3
:1001A80000F0A8EF00F0185079EC01F0000E176E7F
:1001B800A8EF00F007EF00F0070E066E170E056EA9
:1001C8006A0EE82EFED7052EFCD7062EFAD700D0E9
:1001D800060E036E210EB8EC01F0000E036E220E1F
:1001E800B8EC01F0230E90EC01F0076E078E079C27
:1001F800079A079807C003F0230EB8EC01F0010E28
:10020800036E240EB8EC01F00F0E036E200EB8EC4E
:1002180001F0010E036E250EB8EC01F0070E066E14
:10022800170E056E6A0EE82EFED7052EFCD7062E91
:10023800FAD700D01200AC8AAB88AC98AB8EB896CF
:10024800AC84948C948E0FC005F010C006F011C0D9
:1002580007F012C008F0000E016E6C0E026EDC0E84
:10026800036E020E046E09EC00F001C013F002C028
:1002780014F003C015F004C016F013C001F014C048
:1002880002F015C003F016C004F0100E056E000E43
:10029800066E000E076E000E086E09EC00F00104F1
:1002A800AF6EF28EF28C9D8A120093809382C650B4
:1002B800F00B0809C66EC68A000EC56E000EC76E22
:1002C800000E016E1B0E026EB70E036E000E046E5A
:1002D8000FC005F010C006F011C007F012C008F0FA
:1002E80009EC00F00104C86E1200036EACA27FEFA7
:1002F80001F081EF01F07AEF01F003C0ADFF030ECA
:10030800026E700E016E5C0EE82EFED7012EFCD731
:10031800022EFAD700D01200036EFCEC01F0D60EC4
:10032800DFEC01F00350DFEC01F000EC02F0D70E37
:10033800DFEC01F0D4EC01F0046EF8EC01F00450AD
:100348001200C7B4AAEF01F0ACEF01F0A5EF01F07D
:10035800C5CF01F01F0E0116D8A4B5EF01F0B7EF15
:1003680001F0A5EF01F01200046EFCEC01F0D60ECE
:10037800DFEC01F00450DFEC01F00350DFEC01F09A
:10038800F8EC01F012009EAACCEF01F0CEEF01F0DC
:10039800D3EF01F0AECF18F0010E176E9E9A12003F
:1003A800A5EC01F0C586A5EC01F0C9CF02F0EEEC92
:1003B80001F002501200026EA5EC01F002C0C9FF64
:1003C800A5EC01F01200186A176A19901992000139
:1003D8008FEF00F0A5EC01F0C58AC5881200060071
:1003E800C7EC01F019921100A5EC01F0C5841200C8
:1003F800A5EC01F0C5801200A5EC01F0C582120041
:020000040020DA
:08000000FFFFFFFFFFFFFFFF00
:020000040030CA
:0E000000030E191EFF0180FF0FC00FE00F401E
:00000001FF
