:0400000028EF3EF0B7
:107C120040EC3EF0C580120040EC3EF0C5841200FC
:107C2200700ED312FC0ED3169B8C1200026E40EC27
:107C32003EF002C0C9FF40EC3EF0120095929584DE
:107C42000F013B933B958392000E386F120000EEBA
:107C52001BF0150EEE6AE806FDE10001D4EF3EF0DE
:107C6200056E09EC3EF0055017EC3EF0035017ECA0
:107C72003EF0045017EC3EF00DEC3EF01200C7B49B
:107C820045EF3EF047EF3EF040EF3EF0C5CF01F04A
:107C92001F0E0116D8A450EF3EF052EF3EF040EF17
:107CA2003EF01200036EACA259EF3EF05BEF3EF0E5
:107CB20054EF3EF003C0ADFF050E026E0F0E016ED3
:107CC200F10EE82EFED7012EFCD7022EFAD700F0D5
:107CD2001200948694880F013A973A99C650F00B95
:107CE2000809C66EC68A000EC56E000EC76E000E6B
:107CF200016E240E026EF40E036E000E046E0FC0AF
:107D020005F010C006F011C007F012C008F07AECBE
:107D12003FF00104C86E1200AC8AAB88AC98AB8EFF
:107D2200AC9CAC86948C948E0F013A9D3A9FAC84A5
:107D3200B8860FC005F010C006F011C007F012C0DF
:107D420008F0000E016E900E026ED00E036E030E4E
:107D5200046E7AEC3FF001C013F002C014F003C0CD
:107D620015F004C016F013C001F014C002F015C0E3
:107D720003F016C004F0040E056E000E066E000E2F
:107D8200076E000E086E7AEC3FF0FF0E0124176EAC
:107D9200FF0E0220186E1850B06E17C0AFFFF28EA1
:107DA200F28C9D8A120011EC3EF01FEC3EF0000EA8
:107DB2000F6EC20E106E010E116E000E126E8DEC61
:107DC2003EF0A00E0F6E860E106E010E116E000EAA
:107DD200126E6AEC3EF020EC3FF083A4F3EF3EF02B
:107DE200F5EF3EF00BEF3FF02B04D8A4FBEF3EF093
:107DF200FEEF3EF0010EFFEF3EF0000E2B6E190E6D
:107E02001A6E5A0E196EB20EE82EFED7192EFCD734
:107E12001A2EFAD72B50D8B411EF3FF013EF3FF0E0
:107E2200EEEF3EF0470E53EC3EF05F0E53EC3EF0A9
:107E3200580E53EC3EF0EEEF3EF000EF00F06B0E0A
:107E4200036E000E046ED00E31EC3EF0110E076E82
:107E52003C0E066ECB0EE82EFED7062EFCD7072E62
:107E6200FAD700F06B0E036E010E046ED00E31ECE9
:107E72003EF01A0E036E030E046ED00E31EC3EF08D
:107E8200190E036E040E046ED00E31EC3EF01B0E82
:107E9200036E180E046ED00E31EC3EF01C0E036E13
:107EA200180E046ED00E31EC3EF0230E036E000E5F
:107EB200046ED00E31EC3EF0240E036E000E046E02
:107EC200D00E31EC3EF0380E036E000E046ED00E72
:107ED20031EC3EF0670E036E000E046ED00E31ECF4
:107EE2003EF06C0E036E000E046ED00E31EC3EF0CE
:107EF2001200000E0A6E08BE83EF3FF081EF3FF0E2
:107F02008DEF3FF0081E071E061E056C000E0622AE
:107F120007220822010E0A6E04BE94EF3FF092EF90
:107F22003FF09EEF3FF0041E031E021E016C000E86
:107F3200022203220422010E0A1A000E0B6E000E08
:107F42000C6E000E0D6E000E0E6E05500610071020
:107F52000810D8B4AFEF3FF0B1EF3FF0E7EF3FF0DA
:107F6200010E096EBBEF3FF0D89005360636073694
:107F72000836092A08AEC0EF3FF0C2EF3FF0B5EF76
:107F82003FF0D8900B360C360D360E360550015C9C
:107F9200065002580750035808500458D8A0D4EF8E
:107FA2003FF0D6EF3FF0DFEF3FF00550015E0650A5
:107FB200025A0750035A0850045A0B80D8900832CC
:107FC200073206320532092EC2EF3FF00A50D8B40A
:107FD200EDEF3FF0EFEF3FF0F7EF3FF00E1E0D1E1B
:107FE2000C1E0B6C000E0C220D220E220BC001F097
:0E7FF2000CC002F00DC003F00EC004F012002F
:020000040020DA
:08000000FFFFFFFFFFFFFFFF00
:020000040030CA
:0E000000FF881A3CFF3D81FF0FC00FE00F404C
:00000001FF
