:04000000F5EF3EF0EA
:107DD600929A0F01388B1200700ED312FC0ED31636
:107DE6009B8C12001D6A1C6A1B6A1A6A000107EF47
:107DF6003FF0016EACA202EF3FF004EF3FF0FDEF63
:107E06003EF001C0ADFF1200EFEC3EF0EBEC3EF0B1
:107E1600000E0F6EC20E106E010E116E000E126E67
:107E260033EC3FF080A81AEF3FF01CEF3FF015EF60
:107E36003FF0808AD00E196ECA0EE82EFED7192E94
:107E4600FCD7809AD00E196ECA0EE82EFED7192ED0
:107E5600FCD7030EFCEC3EF015EF3FF000EF00F010
:107E6600AC8AAB88AC98AB8EAC9CAC86948C948E6A
:107E76000F013A9D3A9FAC84B8860FC005F010C03A
:107E860006F011C007F012C008F0000E016E900E49
:107E9600026ED00E036E030E046E7AEC3FF001C044
:107EA60013F002C014F003C015F004C016F013C09E
:107EB60001F014C002F015C003F016C004F0040E61
:107EC600056E000E066E000E076E000E086E7AEC4A
:107ED6003FF0FF0E0124176EFF0E0220186E185099
:107EE600B06E17C0AFFFF28EF28C9D8A1200000EA4
:107EF6000A6E08BE83EF3FF081EF3FF08DEF3FF053
:107F0600081E071E061E056C000E06220722082202
:107F1600010E0A6E04BE94EF3FF092EF3FF09EEF23
:107F26003FF0041E031E021E016C000E02220322F5
:107F36000422010E0A1A000E0B6E000E0C6E000EC5
:107F46000D6E000E0E6E0550061007100810D8B400
:107F5600AFEF3FF0B1EF3FF0E7EF3FF0010E096EF4
:107F6600BBEF3FF0D8900536063607360836092AA5
:107F760008AEC0EF3FF0C2EF3FF0B5EF3FF0D8904C
:107F86000B360C360D360E360550015C065002587F
:107F96000750035808500458D8A0D4EF3FF0D6EF46
:107FA6003FF0DFEF3FF00550015E0650025A0750E2
:107FB600035A0850045A0B80D8900832073206320A
:107FC6000532092EC2EF3FF00A50D8B4EDEF3FF06C
:107FD600EFEF3FF0F7EF3FF00E1E0D1E0C1E0B6C81
:107FE600000E0C220D220E220BC001F00CC002F076
:0A7FF6000DC003F00EC004F01200ED
:020000040020DA
:08000000FFFFFFFFFFFFFFFF00
:020000040030CA
:0E000000FF881A3CFF3D81FF0FC00FE00F404C
:00000001FF
