:04000000EAEF3EF0F5
:107DC600929A92881200C2900F0EC1121200186A7F
:107DD600176A00014AEF3FF0016EAB9E809601C024
:107DE600C9FFC7A0F9EF3EF0FBEF3EF0F4EF3EF01F
:107DF6008086280EE82EFED71200026E0250D8B4F6
:107E060007EF3FF009EF3FF01AEF3FF0C78EC78C40
:107E1600C68AC698C6500118F00B0118C66E938024
:107E2600949E939292968086F28EF28C9D86120094
:107E3600AC8AAB88AC98AC9CAC86948C948EAC84A3
:107E4600B886000E016E6C0E026EDC0E036E020E1C
:107E5600046E0FC005F010C006F011C007F012C086
:107E660008F07AEC3FF0D89002320132D890023214
:107E76000132FF0E0124136EFF0E0220146E145001
:107E8600B06E13C0AFFFF28EF28C9D8A1200E3EC47
:107E96003EF0E6EC3EF0000E0F6EC20E106E010EC6
:107EA600116E000E126E1BEC3FF0020E016E010EFB
:107EB60000EC3FF080A862EF3FF064EF3FF05DEF2B
:107EC6003FF0210EEFEC3EF03C0EEFEC3EF0130ED1
:107ED600166E440E156E440EE82EFED7152EFCD7F0
:107EE600162EFAD700D05DEF3FF000EF00F0000E3F
:107EF6000A6E08BE83EF3FF081EF3FF08DEF3FF053
:107F0600081E071E061E056C000E06220722082202
:107F1600010E0A6E04BE94EF3FF092EF3FF09EEF23
:107F26003FF0041E031E021E016C000E02220322F5
:107F36000422010E0A1A000E0B6E000E0C6E000EC5
:107F46000D6E000E0E6E0550061007100810D8B400
:107F5600AFEF3FF0B1EF3FF0E7EF3FF0010E096EF4
:107F6600BBEF3FF0D8900536063607360836092AA5
:107F760008AEC0EF3FF0C2EF3FF0B5EF3FF0D8904C
:107F86000B360C360D360E360550015C065002587F
:107F96000750035808500458D8A0D4EF3FF0D6EF46
:107FA6003FF0DFEF3FF00550015E0650025A0750E2
:107FB600035A0850045A0B80D8900832073206320A
:107FC6000532092EC2EF3FF00A50D8B4EDEF3FF06C
:107FD600EFEF3FF0F7EF3FF00E1E0D1E0C1E0B6C81
:107FE600000E0C220D220E220BC001F00CC002F076
:0A7FF6000DC003F00EC004F01200ED
:020000040020DA
:08000000FFFFFFFFFFFFFFFF00
:020000040030CA
:0E000000030E191EFF0180FF0FC00FE00F401E
:00000001FF
