:04000000C7EF1BF03B
:1006000000415F25633A20252E32660A00475F25A8
:10061000633A20252E32660A0054454D503A202573
:100620002E326C6600494E46004E414E00696E66A1
:10063000006E616E0000000E00017B6F000E7A6F8D
:1006400042C08CF043C08DF044C08EF045C08FF0A6
:100650008FBF2FEF03F02DEF03F045EF03F0000EF7
:100660007B6F010E7A6F8CC001F08DC002F08EC0DE
:1006700003F08FC004F0DCEC1DF001C08CF002C070
:100680008DF003C08EF004C08FF0000E0001936F58
:10069000000E926FDBC07EF0DCC07FF07A517B11E0
:1006A000D8A455EF03F057EF03F05EEF03F0DFA59A
:1006B0005CEF03F05EEF03F078EF03F07A517B110B
:1006C000D8A465EF03F067EF03F06DEF03F0000EC1
:1006D000616F2B0E606F71EF03F0000E616F2D0ED6
:1006E000606F60C000F1924B932B7E07D8A07F070C
:1006F0008CC001F08DC002F08EC003F08FC004F0FA
:1007000037EC17F001040210D8A489EF03F08BEF47
:1007100003F0E2EF03F0BF0E476EFF0E486E465047
:10072000496E4A6A4750492648504A224A500AE1CF
:100730001A0E495CD8A09FEF03F0A2EF03F0010E60
:10074000A3EF03F0000E0001626F636B625163114F
:10075000D8B4ADEF03F0AFEF03F0BDEF03F0000E40
:100760009225016E010E9321026E250E036E060E78
:10077000046EBAEC1CF0C9EF03F0000E9225016E76
:10078000010E9321026E2D0E036E060E046EBAEC5E
:100790001CF00001FD0E7E27FF0E7F2340C011F0EC
:1007A00041C012F0000E136E010E146E7EC015F0E3
:1007B0007FC016F05BEC19F011C040F012C041F0A0
:1007C00046EF09F08CC001F08DC002F08EC003F03E
:1007D0008FC004F037EC17F001500210D8A4F3EFEB
:1007E00003F0F5EF03F035EF04F0BF0E476EFF0E98
:1007F000486E4650496E4A6A4750492648504A2238
:100800004A500AE11A0E495CD8A009EF04F00CEF37
:1008100004F0010E0DEF04F0000E0001646F656B33
:1008200064516511D8B417EF04F019EF04F027EF05
:1008300004F0000E9225016E010E9321026E290E26
:10084000036E060E046EBAEC1CF0C9EF03F0000E46
:100850009225016E010E9321026E310E036E060E7B
:10086000046EBAEC1CF0C9EF03F0000E0001946FA7
:10087000000E956F800E966F3F0E976F000E916F72
:10088000000E906F8CC001F08DC002F08EC003F09E
:100890008FC004F0000E056E000E066E000E076E8F
:1008A000000E086E2BEC1BF0D8B059EF04F05BEF94
:1008B00004F0DEEF04F07AEF04F094C001F095C08C
:1008C00002F096C003F097C004F0000E056E000E13
:1008D000066E200E076E410E086E15EC0EF001C07C
:1008E00094F002C095F003C096F004C097F00001A8
:1008F000904B912B8CC01AF08DC01BF08EC01CF059
:100900008FC01DF0000E056E000E066E200E076EE5
:10091000410E086E94C001F095C002F096C003F03D
:1009200097C004F015EC0EF001C01EF002C01FF0DD
:1009300003C020F004C021F0B5EC16F0D8B0A3EF4E
:1009400004F0A5EF04F05DEF04F0C5EF04F094C0EF
:100950000FF095C010F096C011F097C012F0000E85
:10096000136E000E146E200E156E410E166E2AECDC
:1009700010F00FC094F010C095F011C096F012C0A6
:1009800097F000019007D8A091078CC01AF08DC095
:100990001BF08EC01CF08FC01DF094C01EF095C0DF
:1009A0001FF096C020F097C021F0B5EC16F0D8A04B
:1009B000DCEF04F0DEEF04F0A7EF04F046C007F030
:1009C000086A8AEC1CF007500001816F81C080F03A
:1009D000670E8119D8A4EFEF04F0F1EF04F017EFE0
:1009E00005F0DD51DE11D8A4F8EF04F0FAEF04F0C1
:1009F000FEEF04F0000EDE6F010EDD6FDEBF0BEFC9
:100A000005F0DE5106E1DD05D8B009EF05F00BEF8A
:100A100005F011EF05F0000E7D6F060E7C6F20EFE4
:100A200005F0DDC07CF0DEC07DF020EF05F0DEBF1C
:100A30001CEF05F01EEF05F00BEF05F011EF05F0D0
:100A4000670E8119D8A427EF05F029EF05F058EFBC
:100A500005F091AF37EF05F0FC0E905DFF0E915958
:100A6000D8A035EF05F037EF05F056EF05F0FF0E93
:100A7000476EFF0E486E7CC049F07DC04AF047507B
:100A8000492648504A229051495C4A50800A4B6E90
:100A90009151800A4B58D8A050EF05F052EF05F065
:100AA00056EF05F0660E806F58EF05F0650E806F0B
:100AB0007CC072F07DC073F0670E8119D8A463EF1B
:100AC00005F065EF05F075EF05F0660E8019D8A406
:100AD0006CEF05F06EEF05F077EF05F091BF75EF65
:100AE00005F073EF05F077EF05F0724B732B660E90
:100AF0008019D8A47EEF05F080EF05F0A0EF05F097
:100B000091BF87EF05F085EF05F093EF05F0000E3C
:100B1000946F000E956F800E966F3F0E976F000ECC
:100B2000916F000E906F670E8119D8B49AEF05F09F
:100B30009CEF05F0A0EF05F09051722791517323BF
:100B4000000E8B6F000E8A6F8CC082F08DC083F018
:100B50008EC084F08FC085F094C074F095C075F09D
:100B600096C076F097C077F031EF06F082C00FF0B4
:100B700083C010F084C011F085C012F094C013F04F
:100B800095C014F096C015F097C016F02AEC10F03E
:100B90000FC028F010C029F011C02AF012C02BF0AD
:100BA000F7EC11F028C086F029C087F02AC088F041
:100BB0002BC089F086C001F087C002F088C003F026
:100BC00089C004F032EC16F001C078F002C079F070
:100BD00082C038F083C039F084C03AF085C03BF061
:100BE00094C005F095C006F096C007F097C008F0D5
:100BF00086C001F087C002F088C003F089C004F00D
:100C000015EC0EF001C03CF002C03DF003C03EF018
:100C100004C03FF03AEC1DF038C082F039C083F0D8
:100C20003AC084F03BC085F094C00FF095C010F03E
:100C300096C011F097C012F0000E136E000E146EE5
:100C4000200E156E410E166E2AEC10F00FC094F0B7
:100C500010C095F011C096F012C097F000018A4BB9
:100C60008B2B72518A5D8B51800A476E7351800ABB
:100C70004758D8A03EEF06F040EF06F0B6EF05F07B
:100C800094C001F095C002F096C003F097C004F044
:100C9000000E056E000E066EA00E076E400E086E6A
:100CA00015EC0EF001C086F002C087F003C088F09A
:100CB00004C089F082C01AF083C01BF084C01CF00D
:100CC00085C01DF086C01EF087C01FF088C020F0D0
:100CD00089C021F0B5EC16F0D8B071EF06F073EFD3
:100CE00006F07EEF06F0000E0001866F000E876FA3
:100CF000000E886F000E896FA7EF06F082C001F02A
:100D000083C002F084C003F085C004F086C005F003
:100D100087C006F088C007F089C008F02BEC1BF0F4
:100D2000D8A095EF06F097EF06F0A7EF06F00001C8
:100D300078B19DEF06F09FEF06F0A7EF06F0000EEA
:100D4000866F000E876F000E886F000E896F8CC053
:100D500028F08DC029F08EC02AF08FC02BF086C0FD
:100D60002CF087C02DF088C02EF089C02FF0B5EC94
:100D70000BF028C082F029C083F02AC084F02BC079
:100D800085F082C01AF083C01BF084C01CF085C0BF
:100D90001DF0000E056E000E066E200E076E410E51
:100DA000086E74C001F075C002F076C003F077C021
:100DB00004F015EC0EF001C01EF002C01FF003C0DD
:100DC00020F004C021F0B5EC16F0D8A0EAEF06F050
:100DD000ECEF06F015EF07F00001904B912B74C07B
:100DE00001F075C002F076C003F077C004F0000E89
:100DF000056E000E066E200E076E410E086E15EC95
:100E00000EF001C074F002C075F003C076F004C0AB
:100E100077F0660E00018019D8A411EF07F013EFE8
:100E200007F015EF07F0724B732B74C094F075C088
:100E300095F076C096F077C097F0650E00018019A6
:100E4000D8B425EF07F027EF07F02DEF07F090C09B
:100E500070F091C071F031EF07F0000E716F000E6D
:100E6000706F000E6F6F000E6E6F000E6D6F000ED4
:100E70006C6F000E8B6F000E8A6F2CEF08F082C033
:100E80000FF083C010F084C011F085C012F094C040
:100E900013F095C014F096C015F097C016F02AEC28
:100EA00010F00FC028F010C029F011C02AF012C0B5
:100EB0002BF0F7EC11F028C086F029C087F02AC08B
:100EC00088F02BC089F086C001F087C002F088C08E
:100ED00003F089C004F032EC16F001C078F002C0D3
:100EE00079F00001DFB977EF07F079EF07F096EFBF
:100EF00007F078517911D8A480EF07F082EF07F05E
:100F000096EF07F0670E8119D8A489EF07F08BEFF1
:100F100007F096EF07F071BF92EF07F090EF07F040
:100F200096EF07F06C4B6D2BE0EF07F06E516F11F1
:100F3000D8A49DEF07F09FEF07F0C9EF07F071BF4E
:100F4000A6EF07F0A4EF07F0C9EF07F0000E922517
:100F5000D96E010E9321DA6E2E0EDF6E924B932B1B
:100F60007E07D8A07F07000E6F6F010E6E6FC9EF6E
:100F700007F0000E9225D96E010E9321DA6E300E25
:100F8000DF6E924B932B7E07D8A07F076C07D8A00B
:100F90006D076C516D11D8A4D0EF07F0D2EF07F0B8
:100FA000B9EF07F0000E9225D96E010E9321DA6E8B
:100FB0007851300FDF6E924B932B7E07D8A07F07BE
:100FC00082C038F083C039F084C03AF085C03BF06D
:100FD00094C005F095C006F096C007F097C008F0E1
:100FE00086C001F087C002F088C003F089C004F019
:100FF00015EC0EF001C03CF002C03DF003C03EF025
:1010000004C03FF03AEC1DF038C082F039C083F0E4
:101010003AC084F03BC085F094C00FF095C010F04A
:1010200096C011F097C012F0000E136E000E146EF1
:10103000200E156E410E166E2AEC10F00FC094F0C3
:1010400010C095F011C096F012C097F00001700723
:10105000D8A071078A4B8B2B72518A5D8B51800A05
:10106000476E7351800A4758D8B039EF08F03BEF0C
:1010700008F049EF08F093BF47EF08F0935109E1FA
:101080004B0E925DD8A047EF08F049EF08F03FEF14
:1010900007F06E516F11D8A450EF08F052EF08F02E
:1010A00063EF08F0DFA957EF08F059EF08F063EF9E
:1010B00008F0000E9225D96E010E9321DA6E2E0EE5
:1010C000DF6E924B932B000E9225D96E010E932169
:1010D000DA6E000EDF6E650E8019D8A472EF08F08C
:1010E00074EF08F0CEEF03F0000E8B6F4F0E8A6F97
:1010F000000E8A25D96E010E8B21DA6E000EDF6E8E
:10110000000E7B6F000E7A6F91BF8BEF08F089EFB6
:1011100008F093EF08F0000E7B6F010E7A6F906D70
:10112000911FD8B0912B000E7D6F020E7C6FC4EF23
:1011300008F08A07D8A08B07000E8A25D96E010E09
:101140008B21DA6E90C001F091C002F0000E046EA7
:101150000A0E036E7DEC1AF00150300FDF6E90C066
:1011600001F091C002F0000E046E0A0E036EBEEC98
:1011700019F001C090F002C091F000017C07D8A0E6
:101180007D077E07D8A07F0790519111D8A4CBEF9F
:1011900008F0CDEF08F099EF08F07DBFDAEF08F026
:1011A0007D5106E17C05D8B0D8EF08F0DAEF08F001
:1011B00099EF08F08A07D8A08B077A517B11D8A441
:1011C000E4EF08F0E6EF08F0ECEF08F0000E676FD0
:1011D0002B0E666FF0EF08F0000E676F2D0E666F36
:1011E000000E8A25D96E010E8B21DA6E66C0DFFFF4
:1011F0007E07D8A07F078A07D8A08B07BF0E476E4F
:10120000FF0E486E4650496E4A6A4750492648507C
:101210004A224A500AE11A0E495CD8A012EF09F09E
:1012200015EF09F0010E16EF09F0000E6A6F6B6BF7
:101230006A516B11D8A41FEF09F021EF09F027EFD5
:1012400009F0000E696F650E686F2BEF09F0000E54
:10125000696F450E686F000E8A25D96E010E8B21CD
:10126000DA6E68C0DFFF7E07D8A07F07000E9225E8
:10127000016E010E9321026E000E8A25036E010E8F
:101280008B21046EBAEC1CF0CEEF03F012004EC0BE
:10129000D9FF4FC0DAFFDECFF6FFDDCFF7FF080042
:1012A000F550250AD8A457EF09F059EF09F099EF46
:1012B0000BF04EC0D9FF4FC0DAFFDE2A000EDD2250
:1012C000000E0001DC6F000EDB6FDBC0DFF0DCC066
:1012D000E0F0DD69DE694EC0D9FF4FC0DAFFDECF36
:1012E000F6FFDDCFF7FF0800F5502E0AD8A47BEFFC
:1012F00009F07DEF09F0FBEF09F0000EDE6F000E44
:10130000DD6F4EC0D9FF4FC0DAFFDE2A000EDD22AE
:101310004EC0D9FF4FC0DAFFDECFF6FFDDCFF7FFBB
:101320000800F5502A0AD8A498EF09F09AEF09F0BE
:10133000B7EF09F04EC0D9FF4FC0DAFFDE2A000E2A
:10134000DD2250C0D9FF51C0DAFFDFCF52F0020ECC
:10135000DE26DFCF53F0000EDD2252C0D9FF53C08E
:10136000DAFFDECFDDF0DDCFDEF0FBEF09F04EC0BF
:10137000D9FF4FC0DAFFDECF08F0DDCF09F0DAEC9D
:1013800013F008C0DDF009C0DEF0CEEF09F04EC06A
:10139000D9FF4FC0DAFFDE2A000EDD22D00E526EDA
:1013A000FF0E536E4EC0D9FF4FC0DAFFDECFF6FFFF
:1013B000DDCFF7FF0800F550546E556A52505426A1
:1013C0005350552255500AE10A0E545CD8A0EBEF59
:1013D00009F0EEEF09F0010EEFEF09F0000E000149
:1013E000986F996B98519911D8A4F9EF09F0FBEF18
:1013F00009F0C7EF09F04EC0D9FF4FC0DAFFDECFCA
:10140000F6FFDDCFF7FF0800F550076E086A8AEC9B
:101410001CF007500001A06FA051D8B412EF0AF0E1
:1014200014EF0AF04EEF0AF04EC0D9FF4FC0DAFFBA
:10143000DECF52F0DDCF53F0010E5226000E5322C4
:1014400052C0F6FF53C0F7FF0800F550076E086A58
:101450008AEC1CF007500001A16FA151D8B433EF02
:101460000AF035EF0AF04EEF0AF04EC0D9FF4FC038
:10147000DAFFDECF52F0DDCF53F0020E5226000E1F
:10148000532252C0F6FF53C0F7FF0800F550076E15
:10149000086A8AEC1CF007500001A26F4EC0D9FF09
:1014A0004FC0DAFFDECFF6FFDDCFF7FF0800F550C3
:1014B000630AD8A45EEF0AF060EF0AF087EF0AF043
:1014C0004EC0D9FF4FC0DAFFDE2A000EDD2250C029
:1014D000D9FF51C0DAFFDFCF52F0020EDE26DFCF98
:1014E00053F0000EDD2252C0D9FF53C0DAFFDF50A7
:1014F000A36F4CC00AF04DC00BF0A3C00CF0B6ECCB
:1015000017F00AC04CF00BC04DF0B4EF0BF0660EB4
:10151000A019D8A48EEF0AF090EF0AF0D0EF0AF0ED
:101520004EC0D9FF4FC0DAFFDECFF6FFDDCFF7FFA9
:101530000800F5CFA3F04EC0D9FF4FC0DAFFDE2A76
:10154000000EDD2250C0D9FF51C0DAFFDFCF52F0CC
:10155000040EDE26DFCF53F0000EDD2252C0D9FF8D
:1015600053C0DAFFDECF9CF0DECF9DF0DECF9EF0E1
:10157000DECF9FF04CC040F04DC041F09CC042F027
:101580009DC043F09EC044F09FC045F0A3C046F00C
:101590001BEC03F040C04CF041C04DF0B4EF0BF039
:1015A000A00E016E000E026E220E036E060E046E79
:1015B000000E066E020E056E22EC18F001500210AD
:1015C000D8A4E5EF0AF0E7EF0AF063EF0BF04EC0A6
:1015D000D9FF4FC0DAFFDECF52F0DDCF53F0010E5E
:1015E0005226000E532252C0F6FF53C0F7FF0800E8
:1015F000F5CFA3F0BF0E526EFF0E536E4EC0D9FF53
:101600004FC0DAFFDECFF6FFDDCFF7FF0800F55061
:10161000546E556A525054265350552255500AE183
:101620001A0E545CD8A017EF0BF01AEF0BF0010E56
:101630001BEF0BF0000E00019A6F9B6B9A519B11F0
:10164000D8B425EF0BF027EF0BF041EF0BF050C0B3
:10165000D9FF51C0DAFFDFCF52F0040EDE26DFCF14
:1016600053F0000EDD2252C0D9FF53C0DAFFDECFA7
:101670009CF0DECF9DF0DECF9EF0DECF9FF059EFE5
:101680000BF050C0D9FF51C0DAFFDFCF52F0040E8B
:10169000DE26DFCF53F0000EDD2252C0D9FF53C04B
:1016A000DAFFDECF9CF0DECF9DF0DECF9EF0DECF06
:1016B0009FF0020E4EC0D9FF4FC0DAFFDE26000EAB
:1016C000DD22BAEF0AF04EC0D9FF4FC0DAFFDECFFD
:1016D000F6FFDDCFF7FF0800F550250AD8A473EF19
:1016E0000BF075EF0BF08CEF0BF04EC0D9FF4FC035
:1016F000DAFFDE2A000EDD22000E026E250E016EDC
:101700004CC003F04DC004F0F6EC18F0000E4D6E26
:10171000010E4C6EB4EF0BF04EC0D9FF4FC0DAFF94
:10172000DE2A000EDD22000E4D6E000E4C6EB4EF70
:101730000BF04EC0D9FF4FC0DAFFDECFF6FFDDCF92
:10174000F7FF0800F550016E026A4CC003F04DC06F
:1017500004F0F6EC18F04EC0D9FF4FC0DAFFDE2AD5
:10176000000EDD2286EF0BF012002B50800B346E42
:101770002B502B24366E2AAEC0EF0BF0C2EF0BF0CD
:10178000C3EF0BF036803650D8B4C9EF0BF0CBEF77
:101790000BF0E0EF0BF03628D8A4D1EF0BF0D3EF2D
:1017A0000BF0DBEF0BF0000E286E000E296E000E22
:1017B0002A6E000E2B6E2A8E000E2B6EE8EF0BF0B9
:1017C000000E286E000E296E000E2A6E000E2B6E83
:1017D0002F50800B356E34503518D8B4F2EF0BF023
:1017E000F4EF0BF0F5EF0BF0348C2F502F24356E07
:1017F0002EAEFDEF0BF0FFEF0BF000EF0CF035809D
:101800003550D8B406EF0CF008EF0CF01DEF0CF0DB
:101810003528D8A40EEF0CF010EF0CF018EF0CF0F8
:10182000000E2C6E000E2D6E000E2E6E000E2F6E12
:101830002E8E000E2F6E25EF0CF0000E2C6E000E7B
:101840002D6E000E2E6E000E2F6E3650355CD8B009
:101850002CEF0CF02EEF0CF055EF0CF034AC33EF16
:101860000CF035EF0CF037EF0CF0800E341A36C068
:1018700037F035C036F037C035F028C037F02CC00F
:1018800028F037C02CF029C037F02DC029F037C020
:101890002DF02AC037F02EC02AF037C02EF02BC012
:1018A00037F02FC02BF037C02FF0000E376E3650B8
:1018B00035C030F0316A305E000E315A31BE6AEF09
:1018C0000CF0315009E11A0E305CD8A06AEF0CF030
:1018D0006CEF0CF0A3EF0CF0285029102A102B10FD
:1018E000D8A475EF0CF078EF0CF0010E79EF0CF046
:1018F000000E376E000E286E000E296E000E2A6E46
:10190000000E2B6E35C036F0ACEF0CF037A08BEF2D
:101910000CF08DEF0CF093EF0CF0D89037300109FC
:10192000376E95EF0CF0D890373228A09AEF0CF074
:101930009CEF0CF09DEF0CF0378E2B342B322A32BB
:1019400029322832362A3550365CD8A0AAEF0CF05E
:10195000ACEF0CF086EF0CF034BCB1EF0CF0B3EF51
:101960000CF0F3EF0CF03650D8A4B9EF0CF0BBEF4D
:101970000CF0C5EF0CF0000E286E000E296E000E64
:101980002A6E000E2B6E14EF0EF02C5028262D50D0
:1019900029222E502A222F502B222BA0D2EF0CF0DE
:1019A000D4EF0CF080EF0DF037A0D9EF0CF0DBEFA7
:1019B0000CF0E1EF0CF0D89037300109376EE3EF0F
:1019C0000CF0D890373228A0E8EF0CF0EAEF0CF0DA
:1019D000EBEF0CF0378E2B342B322A32293228329F
:1019E000362A80EF0DF02C50285C2D5029582E50AF
:1019F0002A582B50800A306E2F50800A3058D8B0A9
:101A000004EF0DF006EF0DF031EF0DF028502C5CD7
:101A1000306E29502D58316E2A502E58326E2B5070
:101A20002F58336EFF0E3024286EFF0E3120296EA2
:101A3000FF0E32202A6EFF0E33202B6E800E341ADA
:101A4000376C3750D8A427EF0DF029EF0DF039EFA0
:101A50000DF0010E2826000E29222A222B2239EF12
:101A60000DF02C50285E2D50295A2E502A5A2F50F6
:101A70002B5A285029102A102B10D8A442EF0DF011
:101A800044EF0DF079EF0DF03750D8A44AEF0DF088
:101A90004CEF0DF079EF0DF0000E286E000E296E60
:101AA000000E2A6E000E2B6E14EF0EF0D890283622
:101AB00029362A362B3637AE60EF0DF062EF0DF087
:101AC00063EF0DF0288037A068EF0DF06AEF0DF09E
:101AD0006EEF0DF0D880373670EF0DF0D8903736B6
:101AE0003650D8B476EF0DF078EF0DF079EF0DF0B9
:101AF00036062AAE7EEF0DF080EF0DF056EF0DF0BA
:101B0000000E356E37AE87EF0DF089EF0DF0A1EFC7
:101B10000DF037C030F07F0E3016D8B492EF0DF0D4
:101B200094EF0DF098EF0DF0010E356EA1EF0DF072
:101B300028A09DEF0DF09FEF0DF0A1EF0DF094EFB9
:101B40000DF03550D8B4A7EF0DF0A9EF0DF0D4EF9C
:101B50000DF0010E2826000E29222A222B222BA06E
:101B6000B4EF0DF0B6EF0DF0D4EF0DF028C030F06B
:101B700029C031F02AC032F02BC033F03334333275
:101B800032323132303230C028F031C029F032C028
:101B90002AF033C02BF03628D8B4D1EF0DF0D3EFB4
:101BA0000DF0D4EF0DF0362A3628D8B4DAEF0DF068
:101BB000DCEF0DF0E4EF0DF03650D8A4E2EF0DF0BD
:101BC000E4EF0DF0F6EF0DF0000E286E000E296E1A
:101BD000000E2A6E000E2B6E3650D8A4F2EF0DF0D8
:101BE000F4EF0DF0F6EF0DF0000E346E36A0FBEFC3
:101BF0000DF0FDEF0DF000EF0EF02A8E01EF0EF06C
:101C00002A9ED89036302B6E34AE09EF0EF00BEFD3
:101C10000EF00CEF0EF02B8E28C028F029C029F012
:101C20002AC02AF02BC02BF012000450800B0D6E3E
:101C300004500424136E03AE20EF0EF022EF0EF0DA
:101C400023EF0EF013801350D8B429EF0EF02BEFD2
:101C50000EF03EEF0EF01328D8A431EF0EF033EF64
:101C60000EF03BEF0EF0000E016E000E026E000E45
:101C7000036E000E046E038E46EF0EF0000E016E32
:101C8000000E026E000E036E000E046E0850800BF4
:101C90000D1A08500824126E07AE51EF0EF053EFE4
:101CA0000EF054EF0EF012801250D8B45AEF0EF02E
:101CB0005CEF0EF06FEF0EF01228D8A462EF0EF07A
:101CC00064EF0EF06CEF0EF0000E056E000E066E67
:101CD000000E076E000E086E078E77EF0EF0000EF6
:101CE000056E000E066E000E076E000E086E125096
:101CF000D8B47DEF0EF07FEF0EF087EF0EF01350AB
:101D0000D8A485EF0EF087EF0EF091EF0EF0000EE5
:101D1000016E000E026E000E036E000E046E29EFBF
:101D200010F007500102F3CF18F0F4CF19F018505B
:101D30000E6E0F6A106A116A1950146E156A166ACF
:101D4000176A06500202F3CF18F0F4CF19F01850BA
:101D50000E26000E0F221022112219501426000EFA
:101D600015221622172205500302F3CF18F0F4CFE4
:101D700019F018500E26000E0F22102211221950B1
:101D80001426000E15221622172210C011F00FC0C3
:101D900010F00EC00FF00E6A05500202F3CF18F0DB
:101DA000F4CF19F018500E2619500F22000E1022F1
:101DB000000E112206500102F3CF18F0F4CF19F0F3
:101DC00018500E2619500F22000E1022000E11225C
:101DD00010C011F00FC010F00EC00FF00E6A0550C9
:101DE0000102F3CF18F0F4CF19F018500E26195055
:101DF0000F22000E1022000E112207500202F3CF14
:101E000018F0F4CF19F01850142619501522000EAE
:101E10001622000E172206500302F3CF18F0F4CF5B
:101E200019F01850142619501522000E1622000E13
:101E3000172207500302F3CF18F0F4CF19F018500F
:101E4000096E19500A6E0B6A0C6A0BC00CF00AC0BE
:101E50000BF009C00AF0096A095014260A5015222D
:101E60000B5016220C5017220EC009F00FC00AF0BA
:101E700010C00BF011C00CF0190E44EF0FF0D89009
:101E80000C320B320A320932E82E3FEF0FF00950C4
:101E900014260A5015220B5016220C50172210C07F
:101EA00011F00FC010F00EC00FF00E6A125013C0E8
:101EB00009F00A6A0926000E0A22820E0924186E09
:101EC000FF0E0A20196E7AEF0FF0D89014361536EF
:101ED0001636173611AE6FEF0FF071EF0FF072EF8D
:101EE0000FF01480D8900E360F36103611361806C3
:101EF000D8A0190616AE7FEF0FF081EF0FF065EF57
:101F00000FF0000E126E11AE88EF0FF08AEF0FF097
:101F1000AEEF0FF0FF0E0E14096EFF0E0F140A6ED7
:101F2000FF0E10140B6E7F0E11140C6E09500A1068
:101F30000B100C10D8B49FEF0FF0A1EF0FF0A5EF2E
:101F40000FF0010E126EAEEF0FF014A0AAEF0FF01B
:101F5000ACEF0FF0AEEF0FF0A1EF0FF01250D8B4CE
:101F6000B4EF0FF0B6EF0FF0DAEF0FF0010E14261A
:101F7000000E15221622172217A0C1EF0FF0C3EF93
:101F80000FF0DAEF0FF014C009F015C00AF016C018
:101F90000BF017C00CF00C340C320B320A32093241
:101FA00009C014F00AC015F00BC016F00CC017F0F1
:101FB000184A192A19BEE5EF0FF0195008E1182840
:101FC000D8A0E5EF0FF0E7EF0FF0F1EF0FF0000E04
:101FD000146E000E156E800E166E7F0E176E1FEFBC
:101FE00010F019BEFEEF0FF0195006E11804D8B03A
:101FF000FCEF0FF0FEEF0FF00AEF10F0000E146E82
:10200000000E156E000E166E000E176E000E0D6E91
:102010001FEF10F018C013F0FF0E1416FF0E151668
:102020007F0E1616000E171613A019EF10F01BEFF7
:1020300010F01CEF10F0168ED8901330176E0D5064
:10204000171214C001F015C002F016C003F017C03B
:1020500004F012001250800B1F6E12501224266ED4
:1020600011AE35EF10F037EF10F038EF10F026809A
:102070002650D8B43EEF10F040EF10F055EF10F0BE
:102080002628D8A446EF10F048EF10F050EF10F0DB
:10209000000E0F6E000E106E000E116E000E126E0E
:1020A000118E000E126E5DEF10F0000E0F6E000E1E
:1020B000106E000E116E000E126E1650800B1F1A5D
:1020C00016501624276E15AE68EF10F06AEF10F068
:1020D0006BEF10F027802750D8B471EF10F073EF3A
:1020E00010F088EF10F02728D8A479EF10F07BEFDC
:1020F00010F083EF10F0000E136E000E146E000E41
:10210000156E000E166E158E000E166E90EF10F006
:10211000000E136E000E146E000E156E000E166E7D
:102120001350141015101610D8A499EF10F09BEF4F
:1021300010F0B3EF10F0000E0F6E000E106E000ED8
:10214000116E000E126E800E11127F0E12121F50B1
:1021500012120FC00FF010C010F011C011F012C019
:1021600012F0F6EF11F02650D8A4B9EF10F0BBEF43
:1021700010F0C5EF10F0000E0F6E000E106E000E86
:10218000116E000E126EF6EF11F0275026C017F0F8
:10219000186A175E000E185A7F0E1724206E000E64
:1021A0001820216E0FC01BF010C01CF011C01DF0D4
:1021B00012C01EF0000E0F6E000E106E000E116E9B
:1021C000000E126E000E226E000E236E000E246EA4
:1021D000000E256E000E276E26EF11F02750D8B4A2
:1021E000F4EF10F0F6EF10F00DEF11F0D8901B3671
:1021F0001C361D361E36D8900F3610361136123664
:1022000025AE05EF11F007EF11F008EF11F00F8088
:10221000D890223623362436253613501B5C1450B2
:102220001C5815501D5816501E58D8A01AEF11F002
:102230001CEF11F025EF11F0258C13501B5E14508C
:102240001C5A15501D5A16501E5A272A190E27645B
:102250002CEF11F02EEF11F0EEEF10F01B501C10D0
:102260001D101E10D8B437EF11F039EF11F051EFF7
:1022700011F0228051EF11F0D8900F361036113640
:10228000123625AE46EF11F048EF11F049EF11F08C
:102290000F80D89022362336243625362006D8A043
:1022A000210611AE56EF11F058EF11F03CEF11F08E
:1022B000000E276E25AE5FEF11F061EF11F085EF94
:1022C00011F0FF0E2214176EFF0E2314186EFF0E6E
:1022D0002414196E7F0E25141A6E17501810191039
:1022E0001A10D8B476EF11F078EF11F07CEF11F0FE
:1022F000010E276E85EF11F00FA081EF11F083EF33
:1023000011F085EF11F078EF11F02750D8B48BEF72
:1023100011F08DEF11F0B1EF11F0010E0F26000E4C
:1023200010221122122212A098EF11F09AEF11F050
:10233000B1EF11F00FC017F010C018F011C019F074
:1023400012C01AF01A341A3219321832173217C062
:102350000FF018C010F019C011F01AC012F0204A86
:10236000212A21BEBCEF11F0215008E12028D8A07D
:10237000BCEF11F0BEEF11F0C9EF11F0000E216EAD
:102380002068000E0F6E000E106E000E116E000E13
:10239000126E21BED6EF11F0215006E12004D8B014
:1023A000D4EF11F0D6EF11F0E4EF11F0000E216E32
:1023B000000E206E000E0F6E000E106E000E116EDD
:1023C000000E126E000E1F6E20C026F026A0EBEF4E
:1023D00011F0EDEF11F0F0EF11F0118EF1EF11F0BF
:1023E000119ED8902630126EA7EF10F01200D1C0C7
:1023F00038F0D2C039F0D3C03AF0D4C03BF028C096
:1024000038F029C039F02AC03AF02BC03BF0810ED9
:102410002C6EFF0E2D6E38C02EF039C02FF03AC052
:1024200030F03BC031F0180E1BEF12F0D890313273
:1024300030322F322E32E82E16EF12F02E502C248E
:10244000366E000E2D20376E37BE30EF12F037504B
:1024500009E1170E365CD8A030EF12F032EF12F01F
:102460003CEF12F028C028F029C029F02AC02AF039
:102470002BC02BF0FFEF12F037BE41EF12F043EF0D
:1024800012F0B3EF12F036C02CF0FF0E2D6EFF0EDF
:102490002E6E7F0E2F6E000E306E2C6652EF12F0F5
:1024A0005AEF12F0303430322F322E322D322C2EA1
:1024B0004DEF12F02DC032F02EC033F02FC034F0AB
:1024C00030C035F0325038142C6E335039142D6E24
:1024D00034503A142E6E35503B142F6E2C502D1064
:1024E0002E102F10D8A477EF12F079EF12F07BEFB7
:1024F00012F032EF12F038C02CF039C02DF03AC093
:102500002EF03BC02FF0200E8BEF12F0D8902F3220
:102510002E322D322C32E82E86EF12F02C502D1058
:102520002E102F10D8B497EF12F099EF12F0A1EF00
:1025300012F0325038263350392234503A22355076
:102540003B22321C2C6E331C2D6E341C2E6E351C1F
:102550002F6E2C5038162D5039162E503A162F50FB
:102560003B16F7EF12F038C02CF039C02DF03AC00E
:102570002EF03BC02FF0200EC3EF12F0D8902F3278
:102580002E322D322C32E82EBEEF12F02C502D10B0
:102590002E102F10D8A4CFEF12F0D1EF12F0DBEFF6
:1025A00012F0000E386E000E396E000E3A6E000EFC
:1025B0003B6EF7EF12F0D89038342C6E39342D6E14
:1025C0003A342E6E3B342F6E2C502D102E102F10BF
:1025D000D8B4EDEF12F0EFEF12F0F7EF12F0000EBB
:1025E000386E000E396E800E3A6EBF0E3B6E38C0EC
:1025F00028F039C029F03AC02AF03BC02BF0120075
:10260000096E0950D8B407EF13F009EF13F02BEF60
:1026100013F004BE10EF13F00EEF13F02BEF13F0D6
:1026200001C005F002C006F003C007F004C008F0C6
:10263000051E061E071E081E052A000E062207227A
:10264000082205C00BF006C00CF007C00DF008C052
:102650000EF033EF13F001C00BF002C00CF003C01A
:102660000DF004C00EF00150021003100410D8A4A5
:102670003CEF13F03EEF13F048EF13F0000E016E45
:10268000000E026E000E036E000E046ED9EF13F002
:10269000960E0A6E52EF13F00A2AD8900E320D32BF
:1026A0000C320B32000E0B14056E000E0C14066E6D
:1026B000000E0D14076EFE0E0E14086E0550061067
:1026C00007100810D8A467EF13F069EF13F04CEF70
:1026D00013F077EF13F00A2A010E0B26000E0C22DE
:1026E0000D220E22D8900E320D320C320B32000E1B
:1026F0000B14056E000E0C14066E000E0D14076E02
:10270000FF0E0E14086E0550061007100810D8A40E
:102710008CEF13F08EEF13F06BEF13F096EF13F0D6
:102720000A06D8900B360C360D360E360DBE9BEFD2
:1027300013F09DEF13F0A5EF13F0020E0A60A3EF64
:1027400013F0A5EF13F090EF13F00AB0AAEF13F017
:10275000ACEF13F0ADEF13F00D9ED8900A320AC023
:1027600005F0066A076A086A05C008F0076A066A83
:10277000056A05500B1206500C1207500D12085036
:102780000E120950D8B4C7EF13F0C9EF13F0D1EF10
:1027900013F004BED0EF13F0CEEF13F0D1EF13F02F
:1027A0000E8E0BC001F00CC002F00DC003F00EC085
:1027B00004F01200000E166E000E156E000E0F6E65
:1027C000000E0E6EE6EF13F0084A092A010E146E91
:1027D00008C0F6FF09C0F7FF0800F550200AD8B47A
:1027E000F4EF13F0F6EF13F013EF14F0F70E0A6E98
:1027F000FF0E0B6E08C0F6FF09C0F7FF0800F5508A
:102800000C6E0D6A0A500C260B500D220D5009E17A
:10281000050E0C5CD8A00FEF14F011EF14F013EFBD
:1028200014F0000E146E14C010F0116A1050111044
:10283000D8A41DEF14F01FEF14F0E4EF13F029EF0C
:1028400014F0000E0F6E010E0E6E084A092A5EEF9C
:1028500014F008C0F6FF09C0F7FF0800F5500A6E33
:102860000B6A0B50000AD8B438EF14F05EEF14F086
:102870000A502B0AD8B425EF14F0060AD8B421EF79
:1028800014F05EEF14F015C001F016C002F0000E57
:10289000046E0A0E036E5AEC1EF008C0F6FF09C063
:1028A000F7FF0800F550015E000E025A300E0124B9
:1028B000156E000E0220166E25EF14F0D00E0A6E73
:1028C000FF0E0B6E08C0F6FF09C0F7FF0800F550B9
:1028D0000C6E0D6A0A500C260B500D220D500AE1A9
:1028E0000A0E0C5CD8A077EF14F07AEF14F0010E0A
:1028F0007BEF14F0000E126E136A12501310D8A45E
:1029000084EF14F086EF14F043EF14F00E500F1024
:10291000D8A48DEF14F08FEF14F09DEF14F015C0D4
:102920000AF016C00BF00A1E0B1E0A4A0B2A0AC038
:1029300008F00BC009F0A1EF14F015C008F016C0A4
:1029400009F01200000E0A6E08BEABEF14F0A9EFFA
:1029500014F0B5EF14F0081E071E061E056C000EDD
:10296000062207220822010E0A6E04BEBCEF14F0F4
:10297000BAEF14F0C6EF14F0041E031E021E016C21
:10298000000E022203220422010E0A1A000E0B6E10
:10299000000E0C6E000E0D6E000E0E6E0550061031
:1029A00007100810D8B4D7EF14F0D9EF14F00FEFD8
:1029B00015F0010E096EE3EF14F0D89005360636D7
:1029C00007360836092A08AEE8EF14F0EAEF14F0EB
:1029D000DDEF14F0D8900B360C360D360E36055060
:1029E000015C065002580750035808500458D8A0FC
:1029F000FCEF14F0FEEF14F007EF15F00550015E48
:102A00000650025A0750035A0850045A0B80D890B7
:102A10000832073206320532092EEAEF14F00A5066
:102A2000D8B415EF15F017EF15F01FEF15F00E1EC7
:102A30000D1E0C1E0B6C000E0C220D220E220BC064
:102A400001F00CC002F00DC003F00EC004F0120043
:102A5000306E000E326E000E2F6E000E2E6E305055
:102A6000D8A435EF15F037EF15F050EF15F0430E01
:102A7000036ED00E45EC1EF0316E440E036ED00E88
:102A800045EC1EF0326E325031C02CF02D6A2CC055
:102A90002DF02C6A2C102E6E2D502F6E7DEF15F020
:102AA0003004D8A456EF15F058EF15F066EF15F086
:102AB000450E036ED00E45EC1EF0316E460E036ED1
:102AC000D00E45EC1EF0326E43EF15F0020E3018BA
:102AD000D8A46DEF15F06FEF15F07DEF15F0470EF0
:102AE000036ED00E45EC1EF0316E480E036ED00E14
:102AF00045EC1EF0326E43EF15F02EC001F02FC0F2
:102B000002F0000E02BEFF0E036E046E010E00EC1A
:102B100013F001C00FF002C010F003C011F004C0A8
:102B200012F00001EF51040D600EF324D96E010E76
:102B3000F420DA6EDECF13F0DECF14F0DECF15F026
:102B4000DECF16F02AEC10F00FC028F010C029F0EC
:102B500011C02AF012C02BF01200306E000E326E3F
:102B6000000E2F6E000E2E6E3050D8A4BAEF15F066
:102B7000BCEF15F0D5EF15F03B0E036ED00E45EC13
:102B80001EF0316E3C0E036ED00E45EC1EF0326E20
:102B9000325031C02CF02D6A2CC02DF02C6A2C1034
:102BA0002E6E2D502F6E02EF16F03004D8A4DBEFFE
:102BB00015F0DDEF15F0EBEF15F03D0E036ED00EC6
:102BC00045EC1EF0316E3E0E036ED00E45EC1EF04D
:102BD000326EC8EF15F0020E3018D8A4F2EF15F0DF
:102BE000F4EF15F002EF16F03F0E036ED00E45EC39
:102BF0001EF0316E400E036ED00E45EC1EF0326EAC
:102C0000C8EF15F02EC001F02FC002F0000E02BE7A
:102C1000FF0E036E046E010E00EC13F001C00FF006
:102C200002C010F003C011F004C012F00001F05116
:102C3000040D500EF324D96E010EF420DA6EDECFAF
:102C400013F0DECF14F0DECF15F0DECF16F02AEC55
:102C500010F00FC028F010C029F011C02AF012C0E7
:102C60002BF01200033404340A6E0A50D8A43BEF50
:102C700016F03DEF16F047EF16F0000E016E000E55
:102C8000026E000E036E000E046EB4EF16F001C06B
:102C900005F002C006F003C007F004C008F0200EE3
:102CA00057EF16F0D8900832073206320532E82E78
:102CB00052EF16F00550096E038EFF0E0116FF0E3F
:102CC0000216FF0E0316000E0416960E0A5E0ABECA
:102CD0006EEF16F06CEF16F084EF16F00A50800AD3
:102CE000970FD8B076EF16F078EF16F07AEF16F06F
:102CF0003DEF16F0D89004320332023201320A3E20
:102D00007AEF16F09CEF16F01F0E0A648AEF16F0A9
:102D10008CEF16F094EF16F03DEF16F0D8900136D8
:102D20000236033604360A060A50D8A49AEF16F083
:102D30009CEF16F08EEF16F00950D8B4A2EF16F003
:102D4000A4EF16F0ACEF16F0041E031E021E016C79
:102D5000000E02220322042201C001F002C002F090
:102D600003C003F004C004F01200000E1A14226E17
:102D7000000E1B14236E800E1C14246E7F0E1D1477
:102D8000256E2250231024102510D8A4CAEF16F067
:102D9000CCEF16F0D4EF16F0000E1A6E000E1B6E7C
:102DA000000E1C6E000E1D6E000E1E14226E000E14
:102DB0001F14236E800E2014246E7F0E2114256EA6
:102DC0002250231024102510D8A4E9EF16F0EBEFC1
:102DD00016F0F3EF16F0000E1E6E000E1F6E000EC2
:102DE000206E000E216E1DAEF8EF16F0FAEF16F011
:102DF00003EF17F01A6C1B1ED8B01B2A1C1ED8B08C
:102E00001C2A800E1D5621AE08EF17F00AEF17F0AE
:102E100013EF17F01E6C1F1ED8B01F2A201ED8B04B
:102E2000202A800E2156000E1A1A000E1B1A000EC0
:102E30001C1A800E1D1A000E1E1A000E1F1A000EFC
:102E4000201A800E211A1E501A5C1F501B58205049
:102E50001C5821501D58D8B030EF17F032EF17F042
:102E600035EF17F0D89036EF17F0D8801200D5C0A4
:102E70000BF0D6C00CF0D7C00DF0D8C00EF001C0DA
:102E80000BF002C00CF003C00DF004C00EF00BC03C
:102E900005F00CC006F00DC007F00EC008F0180ECB
:102EA00057EF17F0D8900832073206320532E82E75
:102EB00052EF17F00550096E0A6A09500A10D8A49B
:102EC00064EF17F066EF17F086EF17F0D8900B3429
:102ED000056E0C34066E0D34076E0E34086E055008
:102EE000061007100810D8A478EF17F07AEF17F043
:102EF00080EF17F0000E026E020E016EB5EF17F0B4
:102F0000000E026E030E016EB5EF17F009280A10CD
:102F1000D8A48DEF17F08FEF17F0B1EF17F00BC0BB
:102F200005F00CC006F00DC007F00EC008F0090E49
:102F3000D8900536063607360836E82E98EF17F093
:102F40000550061007100810D8B4A9EF17F0ACEF21
:102F500017F0010EADEF17F0000E016E026AB5EF2B
:102F600017F0000E026E040E016E12000001DB511C
:102F7000DC11D8A4BEEF17F0C0EF17F0C6EF17F0C2
:102F8000DBC010F0DCC011F0CCEF17F0FF0EDB253A
:102F9000106EFF0EDC21116EDFA1D1EF17F0D3EF21
:102FA00017F0DCEF17F00CC001F0026A0AC003F062
:102FB0000BC004F0F6EC18F011BEE1EF17F0E3EFF0
:102FC00017F0E5EF17F0E9EF17F0000E116E000EA5
:102FD000106E000E0F6E000E0E6EFBEF17F0000E5F
:102FE000026E200E016E0AC003F00BC004F0F6EC76
:102FF00018F00E4A0F2A10500E5C0F50800A0D6E0A
:103000001150800A0D58D8A008EF18F00AEF18F0F8
:10301000EFEF17F00001DFB110EF18F012EF18F02A
:103020001BEF18F00CC001F0026A0AC003F00BC0DD
:1030300004F0F6EC18F0010E0E240A6E000E0F20BC
:103040000B6E120001C008F002C009F003C00AF0C4
:1030500004C00BF00506D8A00606052806E10628E0
:10306000D8A435EF18F037EF18F044EF18F0000E41
:10307000026E000E016E8CEF18F0084A092A0A4A07
:103080000B2A0506D8A0060608C0D9FF09C0DAFF3A
:10309000DF50D8B44EEF18F050EF18F07BEF18F077
:1030A0000AC0F6FF0BC0F7FF0800F5500009D8B4BE
:1030B0005CEF18F05EEF18F07BEF18F0055006108B
:1030C000D8B465EF18F067EF18F07BEF18F008C080
:1030D000D9FF09C0DAFFDF50076E0AC0F6FF0BC048
:1030E000F7FF0800F5500718D8B479EF18F07BEF18
:1030F00018F03DEF18F008C0D9FF09C0DAFFDF5023
:10310000076E0AC0F6FF0BC0F7FF0800F550075C1A
:10311000016E026AD8A002061200096E09C0F0F022
:1031200006C0EFF06B0E036E000E046ED00E90EC36
:103130001EF0110E086E3C0E076ECB0EE82EFED769
:10314000072EFCD7082EFAD700F06B0E036E010E87
:10315000046ED00E90EC1EF01A0E036E030E046E79
:10316000D00E90EC1EF0190E036E040E046ED00EFD
:1031700090EC1EF00001EF39E842F80B0A6E1B0ECE
:10318000036E0AC004F0D00E90EC1EF00001F0397E
:10319000E842F80B0B6E1C0E036E0BC004F0D00E51
:1031A00090EC1EF0230E036E000E046ED00E90EC19
:1031B0001EF0240E036E000E046ED00E90EC1EF076
:1031C000380E036E000E046ED00E90EC1EF0670EEB
:1031D000036E000E046ED00E90EC1EF06C0E036EAB
:1031E000000E046ED00E90EC1EF01200035004107E
:1031F000D8B4FDEF18F0FFEF18F008EF19F0035006
:103200000410D8A406EF19F008EF19F00DEF19F02B
:103210000150E9EC1EF05AEF19F020EE04F00350D3
:10322000D9260450DA22DE50DE10D8B41AEF19F095
:103230001CEF19F037EF19F020EE04F00350D926F7
:103240000450DA2210EE02F00350E1260450E2228C
:10325000DE50E65CE650800A096EDE50800A0958AE
:10326000D8B035EF19F037EF19F05AEF19F020EE1A
:1032700002F00350D9260450DA22DECF05F0DDCF6C
:1032800006F003C0D9FF04C0DAFFDECF07F0DDCFC0
:1032900008F005500724D96E06500820DA6E01C0E8
:1032A000DFFF20EE02F00350D9260450DA22DE2A96
:1032B000000EDD2212000001DFA161EF19F063EFC3
:1032C00019F06DEF19F013C00AF014C00BF011C023
:1032D0000CF012C00DF080EC1DF016BE72EF19F06C
:1032E00074EF19F07AEF19F015C01AF016C01BF040
:1032F0007EEF19F0000E1B6E000E1A6E000E196E96
:10330000000E186E90EF19F0000E026E200E016E86
:1033100011C003F012C004F0F6EC18F0184A192A94
:103320001A50185C1950800A176E1B50800A1758E3
:10333000D8A09DEF19F09FEF19F084EF19F000016C
:10334000DFB1A5EF19F0A7EF19F0B1EF19F013C035
:103350000AF014C00BF011C00CF012C00DF080EC9C
:103360001DF013C001F014C002F014EC1EF01A504E
:103370000124116E1B500220126E1200000E066E08
:1033800004BEC7EF19F0C5EF19F0CDEF19F0036CCB
:10339000041ED8B0042A010E066E02BED4EF19F046
:1033A000D2EF19F0DAEF19F0016C021ED8B0022A40
:1033B000010E061A000E086E000E076E0350041070
:1033C000D8B4E5EF19F0E7EF19F00FEF1AF0010E9E
:1033D000056EEFEF19F0D89003360436052A04AED7
:1033E000F4EF19F0F6EF19F0EBEF19F0D89007367B
:1033F00008360350015C04500258D8A002EF1AF0BE
:1034000004EF1AF009EF1AF00350015E0450025A5B
:103410000780D89004320332052EF6EF19F00650DB
:10342000D8B415EF1AF017EF1AF01BEF1AF0076C6B
:10343000081ED8B0082A07C001F008C002F0120028
:10344000CFEC1EF0BEEC1EF0000E0F6EC20E106E22
:10345000010E116E000E126E80EC1BF0A00E0F6EAE
:10346000860E106E010E116E000E126E5DEC1DF0D8
:10347000000E066E020E8DEC18F083A442EF1AF0D7
:1034800044EF1AF05DEF1AF00001E505D8A44BEF08
:103490001AF04EEF1AF0010E4FEF1AF0000EE56F22
:1034A000190E0001C46F5A0EC36FB10EE82EFED77D
:1034B000C32FFCD7C42FFAD700D00001E551D8B4F0
:1034C00064EF1AF066EF1AF03DEF1AF0B4EC1EF05C
:1034D000AAEC1EF02FEC1EF00D0E0001C46F2D0E95
:1034E000C36FD70EE82EFED7C32FFCD7C42FFAD751
:1034F00000D03DEF1AF000EF00F0000E066E02BEA5
:1035000086EF1AF084EF1AF08CEF1AF0016C021EAD
:10351000D8B0022A010E066E04BE93EF1AF091EFA6
:103520001AF097EF1AF0036C041ED8B0042A035067
:103530000410D8B49EEF1AF0A0EF1AF0C4EF1AF0FE
:10354000010E056EA8EF1AF0D89003360436052A4E
:1035500004AEADEF1AF0AFEF1AF0A4EF1AF003507B
:10356000015C04500258D8A0B8EF1AF0BAEF1AF074
:10357000BEEF1AF00350015E0450025AD890043294
:103580000332052EAFEF1AF00650D8B4CAEF1AF086
:10359000CCEF1AF0D0EF1AF0016C021ED8B0022A5C
:1035A00001C001F002C002F01200000E416E000ED8
:1035B0003F6E000E3E6E410E036ED00E45EC1EF0C7
:1035C000406E420E036ED00E45EC1EF0416E41502F
:1035D00040C03CF03D6A3CC03DF03C6A3C103E6E51
:1035E0003D503F6E000E136E000E146EAA0E156E47
:1035F000430E166E3EC001F03FC002F0000E02BE48
:10360000FF0E036E046E010E00EC13F001C00FF00C
:1036100002C010F003C011F004C012F02AEC10F048
:103620000FC028F010C029F011C02AF012C02BF0F2
:10363000B80E2C6E1E0E2D6E120E2E6E420E2F6EBA
:10364000B5EC0BF028C038F029C039F02AC03AF0A8
:103650002BC03BF01200000E0114096E000E021484
:103660000A6E800E03140B6E7F0E04140C6E09504C
:103670000A100B100C10D8A440EF1BF042EF1BF007
:103680004AEF1BF0000E016E000E026E000E036E7C
:10369000000E046E000E0514096E000E06140A6E6C
:1036A000800E07140B6E7F0E08140C6E09500A1062
:1036B0000B100C10D8A45FEF1BF061EF1BF069EF4B
:1036C0001BF0000E056E000E066E000E076E000E5B
:1036D000086E055001180FE1065002180CE1075062
:1036E000031809E108500418D8B479EF1BF07BEFF8
:1036F0001BF07EEF1BF0D8907FEF1BF0D8801200FC
:10370000AC8AAB88AC98AB8EAC9CAC86948C948E17
:103710000F013A9D3A9FAC84B8860FC005F010C0E7
:1037200006F011C007F012C008F0000E016E900EF6
:10373000026ED00E036E030E046EA2EC14F001C0F4
:1037400013F002C014F003C015F004C016F013C04B
:1037500001F014C002F015C003F016C004F0040E0E
:10376000056E000E066E000E076E000E086EA2ECCF
:1037700014F0FF0E0124176EFF0E0220186E185071
:10378000B06E17C0AFFFF28EF28C9D8A1200000E51
:10379000F66E3D0EF76E000EF86E01EE50F010EE74
:1037A00020F00900F5CFEEFFE550E150FAE1CC0E34
:1037B000F66E3D0EF76E000EF86E00EEE9F010EEBC
:1037C00006F00900F5CFEEFFE550E150FAE101EE19
:1037D00000F0500EEE6AE806FDE100EEC5F0240EA2
:1037E000EE6AE806FDE15F6A000EF86E000120EF68
:1037F0001AF058C05CF059C05DF0000E0001DA6F9D
:10380000000ED96F17EF1CF056C04CF057C04DF0AA
:103810005C0E4E6E000E4F6E5AC050F05BC051F001
:1038200047EC09F04C500001D9274D50DA235CC019
:10383000F6FF5DC0F7FF0800F5500009D8A423EF9C
:103840001CF025EF1CF004EF1CF0D9C056F0DAC0D4
:1038500057F012000001C26FECC0BFF0EDC0C0F025
:10386000EEC0C1F0B60E0001A46F000EA56F0D0EE4
:10387000A66F060EA76FBF0EC225D96EDA6A000EBC
:10388000DA22DF505E6E5E50A86FA96BC25128EC41
:1038900015F028C0AAF029C0ABF02AC0ACF02BC0AC
:1038A000ADF0E8EC1CF0B60E016E000E026EA2EC5C
:1038B0001DF012000001C26FE9C0BFF0EAC0C0F005
:1038C000EBC0C1F0B60E0001A46F000EA56F010E93
:1038D000A66F060EA76FBF0EC225D96EDA6A000E5C
:1038E000DA22DF505E6E5E50A86FA96BC251ADEC5C
:1038F00015F028C0AAF029C0ABF02AC0ACF02BC04C
:10390000ADF0E8EC1CF0B60E016E000E026EA2ECFB
:103910001DF01200BF0E096EFF0E0A6E07C00BF0FD
:1039200008C00CF009500B260A500C220C500AE17A
:103930001A0E0B5CD8A09FEF1CF0A2EF1CF0010E3A
:10394000A3EF1CF0000E0D6E0E6A0D500E10D8B4D1
:10395000ACEF1CF0AEEF1CF0B5EF1CF0200E071022
:10396000076E0850086EB9EF1CF007C007F008C0DA
:1039700008F0120003C007F004C008F001C009F00D
:1039800002C00AF00750056E0850066E074A082A62
:1039900005C0F6FF06C0F7FFF86A09C0D9FF0AC0E4
:1039A000DAFF094A0A2A050EF76403D00800F55029
:1039B00005D0F6CFE1FFF7CFE2FFE750DF6EDF5033
:1039C000D8A4E5EF1CF0E7EF1CF0C2EF1CF01200EA
:1039D000A80E0001AE6F000EAF6FA4C0B0F0A5C07E
:1039E000B1F0000EB36F000EB26F000EB56F000E97
:1039F000B46FB00E566E000E576EA6C058F0A7C03A
:103A000059F0AE0E5A6E000E5B6EF9EC1BF0000121
:103A1000B251A425D96EB351A521DA6E000EDF6E26
:103A20001200010E076E200E01180210D8B41BEF11
:103A30001DF01DEF1DF036EF1DF0F70E036EFF0EAB
:103A4000046E01C005F002C006F0035005260450C4
:103A50000622065009E1050E055CD8A032EF1DF0E4
:103A600034EF1DF036EF1DF0000E076E07C001F0B9
:103A7000026A1200000E3C1A000E3D1A000E3E1A99
:103A8000800E3F1A38C028F039C029F03AC02AF019
:103A90003BC02BF03CC02CF03DC02DF03EC02EF0C2
:103AA0003FC02FF0B5EC0BF028C038F029C039F03A
:103AB0002AC03AF02BC03BF01200948694880F0184
:103AC0003A973A99C650F00B0809C66EC68A000E9E
:103AD000C56E000EC76E000E016E240E026EF40E4F
:103AE000036E000E046E0FC005F010C006F011C08A
:103AF00007F012C008F0A2EC14F00104C86E120026
:103B0000000E106E000E0F6E91EF1DF00EC001F052
:103B1000026A0CC003F00DC004F0F6EC18F00F4A76
:103B2000102A0F500A24D96E10500B20DA6EDF5085
:103B30000E6E0E50D8A49FEF1DF0A1EF1DF086EF82
:103B40001DF01200B3EF1DF0ACA2A9EF1DF0ABEF1A
:103B50001DF0A4EF1DF001C0D9FF02C0DAFFDF5055
:103B6000AD6E014A022A01C0D9FF02C0DAFFDF5060
:103B7000D8A4BDEF1DF0BFEF1DF0A4EF1DF01200A3
:103B8000BF0E036EFF0E046E01C005F002C006F00A
:103B9000035005260450062206500AE11A0E055C61
:103BA000D8A0D5EF1DF0D8EF1DF0010ED9EF1DF014
:103BB000000E016E026A1200015002100310041080
:103BC000D8B4E5EF1DF0E7EF1DF0EFEF1DF0000EAC
:103BD000011A000E021A000E031A800E041A01C008
:103BE00001F002C002F003C003F004C004F01200B0
:103BF000D00E036EFF0E046E01C005F002C006F089
:103C0000035005260450062206500AE10A0E055C00
:103C1000D8A00DEF1EF010EF1EF0010E11EF1EF0F8
:103C2000000E016E026A120001C003F002C004F02F
:103C30001CEF1EF0014A022A01C0D9FF02C0DAFFC0
:103C4000DF50D8A426EF1EF028EF1EF01AEF1EF06A
:103C50000350015C016E04500258026E1200B60E51
:103C60000001A46F000EA56F190EA66F060EA76FB8
:103C7000D5EC1AF038C0A8F039C0A9F03AC0AAF0C3
:103C80003BC0ABF0E8EC1CF01200056EE2EC1EF05D
:103C90000550C7EC1EF00350C7EC1EF0DAEC1EF026
:103CA0000528C7EC1EF09FEC1EF0046EDEEC1EF043
:103CB0000450120001500302F3CF05F0F4CF06F0D8
:103CC00001500402F350062602500302F350062668
:103CD00005C001F006C002F01200C7B472EF1EF07A
:103CE00074EF1EF06DEF1EF0C5CF01F01F0E011630
:103CF000D8A47DEF1EF07FEF1EF06DEF1EF01200D6
:103D0000000080460000004600008045000000459D
:103D100000000343000083423333034233338341C3
:103D2000056EE2EC1EF00550C7EC1EF00350C7EC28
:103D30001EF00450C7EC1EF0DEEC1EF012006DEC1D
:103D40001EF0C5866DEC1EF0C9CF02F0D5EC1EF05A
:103D500002501200000E2AEC1CF0010E2AEC1CF09E
:103D6000020E2AEC1CF01200000E5AEC1CF0010EA0
:103D70005AEC1CF0020E5AEC1CF01200959295843D
:103D80000F013B933B958392000E386F1200026E39
:103D90006DEC1EF002C0C9FF6DEC1EF01200700E3B
:103DA000D312FC0ED3169B8C12006DEC1EF0C58A4C
:103DB000C58812006DEC1EF0C58212006DEC1EF07D
:103DC000C58412006DEC1EF0C580120058595A5877
:043DD000595A12002A
:020000040020DA
:08000000FFFFFFFFFFFFFFFF00
:020000040030CA
:0E000000FF881A3CFF3D81FF0FC00FE00F404C
:00000001FF
