:0400000007EF00F016
:1000080017820FED01F017EF01F0000E0A6E08AE2F
:100018000AD0081E071E061E056C000E06220722BF
:100028000822010E0A6E04AE0AD0041E031E021E28
:10003800016C000E022203220422010E0A1A000E8D
:100048000B6E000E0C6E000E0D6E000E0E6E05503F
:10005800061007100810D8B42AD0010E096E06D071
:10006800D8900536063607360836092A08AEF8D776
:10007800D8900B360C360D360E360550015C0650FE
:1000880002580750035808500458D8A009D0055002
:10009800015E0650025A0750035A0850045A0B8052
:1000A800D8900832073206320532092EE1D70A50B5
:1000B800D8B408D00E1E0D1E0C1E0B6C000E0C22A0
:1000C8000D220E220BC001F00CC002F00DC003F08F
:1000D8000EC004F0120094908290948C948E9386B3
:1000E800070EB412F28EF28C9D8AF28AAC8AAB8823
:1000F800AC98AB8EB896AC944D0EAF6EA00E0F6E4A
:10010800860E106E010E116E000E126ED3EC00F00A
:1001180081A63ED0000E026E000E016E23EC01F0A7
:10012800040E146E0C0E136E340EE82EFED7132E2A
:10013800FCD7142EFAD72CEC01F0D60E07EC01F000
:100148000F0E07EC01F030EC01F0D70E07EC01F0D0
:10015800F3EC00F0156E28EC01F0040E146E0C0E92
:10016800136E340EE82EFED7132EFCD7142EFAD7B2
:1001780015C001F0026A23EC01F00D0E146E2D0E6D
:10018800136ED80EE82EFED7132EFCD7142EFAD7EE
:100198001650D8B402D08280BBD78290B9D793804A
:1001A8009382C650F00B0809C66EC68A000EC56E4B
:1001B800000EC76E000E016E1B0E026EB70E036EA8
:1001C800000E046E0FC005F010C006F011C007F055
:1001D80012C008F009EC00F00104C86E1200FEEC31
:1001E80000F0C586FEEC00F0C9CF02F01EEC01F06D
:1001F80002501200C7B4FED7C5CF01F01F0E01167A
:10020800D8B41200F7D7026EFEEC00F002C0C9FFA6
:10021800FEEC00F0120006009EAA03D0AECF16F046
:100228009E9A17921100166A156A17901792000184
:100238006FEF00F0FEEC00F0C58AC5881200ACA292
:10024800FED701C0ADFF1200FEEC00F0C58412001D
:10025800FEEC00F0C5801200FEEC00F0C582120032
:020000040030CA
:0E000000030E191EFF8180FF0FC00FE00F409E
:00000001FF
